:100000000C9463000C948B000C948B000C948B006C
:100010000C948B000C948B000C948B000C94510569
:100020000C948B000C948B000C948B000C948B0024
:100030000C948B000C948B000C948B000C948B0014
:100040000C942B060C948B000C94F9050C94D3059E
:100050000C948B000C948B000C948B000C948B00F4
:100060000C948B000C948B000000000024002700EF
:100070002A0000000008000201000003040700003D
:1000800000000000000000000000230026002900FE
:10009000010204081020408001020408102001021F
:1000A0000408102000000000250028002B00040494
:1000B0000404040404040202020202020303030310
:1000C00003030200BA0611241FBECFEFD8E0DEBF43
:1000D000CDBF11E0A0E0B1E0EEE1F4E102C0059097
:1000E0000D92AE38B107D9F722E0AEE8B1E001C019
:1000F0001D92AD35B207E1F710E0C3E6D0E004C0D1
:100100002197FE010E94F809C236D107C9F70E9463
:1001100004070C940D0A0C940000AF92BF92CF928A
:10012000DF92EF92FF920F931F93CF93DF936C01B7
:100130007B018B01040F151FEB015E01AE18BF0898
:10014000C017D10759F06991D601ED91FC9101904A
:10015000F081E02DC6010995892B79F7C501DF9162
:10016000CF911F910F91FF90EF90DF90CF90BF90B4
:10017000AF900895FC01538D448D252F30E0842FDE
:1001800090E0821B930B541710F0CF9608950197BF
:100190000895FC01918D828D981761F0A28DAE0FAC
:1001A000BF2FB11D5D968C91928D9F5F9F73928F33
:1001B00090E008958FEF9FEF0895FC01918D828D5F
:1001C000981731F0828DE80FF11D858D90E008952C
:1001D0008FEF9FEF0895FC01918D228D892F90E084
:1001E000805C9F4F821B91098F739927089588EA3D
:1001F00091E00E94EB0021E0892B09F420E0822F9E
:10020000089580E090E0892B29F00E94F700811189
:100210000C9400000895FC01A48DA80FB92FB11D06
:10022000A35ABF4F2C91848D90E001968F7399272C
:10023000848FA689B7892C93A089B1898C9183700A
:1002400080648C93938D848D981306C00288F38903
:10025000E02D80818F7D80830895EF92FF920F9330
:100260001F93CF93DF93EC0181E0888F9B8D8C8D62
:1002700098131AC0E889F989808185FF15C09FB756
:10028000F894EE89FF896083E889F9898081837019
:10029000806480839FBF81E090E0DF91CF911F91C8
:1002A0000F91FF90EF900895F62E0B8D10E00F5FE9
:1002B0001F4F0F731127E02E8C8D8E110CC00FB6BF
:1002C00007FCFACFE889F989808185FFF5CFCE0157
:1002D0000E940B01F1CFEB8DEC0FFD2FF11DE35AC6
:1002E000FF4FF0829FB7F8940B8FEA89FB898081DA
:1002F0008062CFCFCF93DF93EC01888D8823B9F054
:10030000AA89BB89E889F9898C9185FD03C0808120
:1003100086FD0DC00FB607FCF7CF8C9185FFF2CF9D
:10032000808185FFEDCFCE010E940B01E9CFDF91E7
:10033000CF91089590E0FC01EE58FF4F2491FC010D
:10034000E057FF4F3491FC01E255FF4FE491EE235B
:10035000C9F0222339F0233001F1A8F4213019F13A
:10036000223029F1F0E0EE0FFF1FEC55FF4FA59171
:10037000B4918FB7F894EC91611126C030953E236B
:100380003C938FBF08952730A9F02830C9F024305E
:1003900049F7809180008F7D03C0809180008F7726
:1003A00080938000DFCF84B58F7784BDDBCF84B5A9
:1003B0008F7DFBCF8091B0008F778093B000D2CF3C
:1003C0008091B0008F7DF9CF3E2BDACFCF93DF93B2
:1003D00090E0FC01E057FF4F249182559F4FFC01B4
:1003E00084918823D1F090E0880F991FFC01E8598F
:1003F000FF4FA591B491FC01EC55FF4FC591D491ED
:1004000061110EC09FB7F8948C91E22FE0958E2376
:100410008C932881E223E8839FBFDF91CF910895D9
:100420008FB7F894EC91E22BEC938FBFF6CFCF927D
:10043000DF92EF92FF921F93CF93DF936B017C01CA
:1004400080910001873051F08F3FF9F0DF91CF911B
:100450001F91FF90EF90DF90CF900895E2ECF0E0D5
:10046000C491C7FDF3CF61E087E00E94E601CC2391
:1004700009F479C0C23009F09DC08091B100887F35
:1004800083608093B100DFEC73C087E0809300014C
:10049000E2ECF0E0C491CF3FC9F2C13021F150F05D
:1004A000C23009F43EC0C7FDD1CF61E087E00E94B1
:1004B000E601E0CF14BC15BC84B5826084BD85B56F
:1004C000816085BDE5EBF0E0E491F0E0EE0FFF1F09
:1004D000EC55FF4F85919491E7E9F0E0E491E093CA
:1004E0009B01C0E0C0CF10928000109281008091EB
:1004F0008100886080938100809181008160809379
:100500008100E5EBF0E0E491F0E0EE0FFF1FEC5529
:10051000FF4F85919491E7E9F0E0E491E0939A012F
:10052000A2CF1092B0001092B1008091B000826012
:100530008093B0008091B10081608093B100E5EBC1
:10054000F0E0E491F0E0EE0FFF1FEC55FF4F8591D6
:1005500094919093990180939801E7E9F0E0E491F8
:10056000E093970180CF85B5887F836085BDD7E60E
:1005700010E0A0E6B9E0A70196010E94ED0928EE7F
:1005800033E040E050E00E94CB09C130F1F0C230CE
:1005900081F1C1115BCFD7BD2093A4013093A50198
:1005A0004093A6015093A70180916E0082608093D2
:1005B0006E004CCFC13031F480918100887F816022
:1005C00080938100D9E01AE1D4CF8D2F912F9093A1
:1005D0008900809388002093A0013093A10140936B
:1005E000A2015093A30180916F00826080936F00FD
:1005F0002DCFD093B30020939C0130939D01409365
:100600009E0150939F0180917000826080937000E2
:100610001DCF8E50806480937C0080917A0080642E
:1006200080937A0080917A0086FDFCCF80917800DB
:100630009091790008953FB7F8948091930190913B
:100640009401A0919501B091960126B5A89B05C093
:100650002F3F19F00196A11DB11D3FBFBA2FA92F41
:10066000982F8827BC01CD01620F711D811D911D3E
:1006700042E0660F771F881F991F4A95D1F70895AA
:100680008F929F92AF92BF92CF92DF92EF92FF92A2
:100690004B015C010E941B036B017C010E941B0348
:1006A0006C197D098E099F09683E7340810591058B
:1006B000A8F321E0821A9108A108B10888EEC80EBB
:1006C00083E0D81EE11CF11C81149104A104B10443
:1006D00029F7FF90EF90DF90CF90BF90AF909F9061
:1006E0008F900895089590E080E00895CF93DF9370
:1006F000EC0160E08E810E949A0161E08E810E948F
:100700009A0160E08E810E949A018BE891E0019746
:10071000F1F7DF91CF910895CF92DF92EF92FF92A0
:100720000F931F93CF93DF936C017C0187E0E80E5A
:10073000F11CD0E0C0E0062F10E0B8010C2E02C082
:10074000759567950A94E2F76170F70181917F01D1
:100750000E949A012196C430D10579F7C601DF9134
:10076000CF911F910F91FF90EF90DF90CF900C945D
:100770007603CF92DF92EF92FF920F931F93CF9366
:10078000DF93EC01F62E642F8C810E949A018D81FB
:100790008F3F19F060E00E949A010F2D10E08F85C5
:1007A00084FF25C06E0187E0C80ED11CF12CE12C1E
:1007B000B8010E2C02C0759567950A94E2F7617036
:1007C000F60181916F010E949A01FFEFEF1AFF0A73
:1007D00088E0E816F10461F7CE01DF91CF911F9117
:1007E0000F91FF90EF90DF90CF900C947603B801BB
:1007F00084E0759567958A95E1F7CE010E948C0398
:100800006F2DCE01DF91CF911F910F91FF90EF904F
:10081000DF90CF900C948C0340E0682F85E492E049
:100820000C94B903CF93DF93823029F49091540252
:10083000986090935402809358021092590280E479
:1008400080935A0280E180935B0280E580935C0292
:1008500061E0809149020E94E60180914A028F3F47
:1008600019F061E00E94E60161E080914B020E9474
:10087000E601C5E4D2E09E01255432408091540245
:1008800084FD0BC084E090E021962817390744F4DA
:1008900061E08E810E94E601EECF88E090E0F4CF27
:1008A0008BE39DE00197F1F760E0809149020E949F
:1008B0009A0160E080914B020E949A0180914A0265
:1008C0008F3F19F060E00E949A018091540284FDEC
:1008D00039C063E085E492E00E948C03CBE4D6E467
:1008E000CE010197F1F763E085E492E00E948C036A
:1008F0002197F1F763E085E492E00E948C0383E5A1
:1009000092E00197F1F762E085E492E00E948C03A7
:100910008091540280620E940C0484E0809355020E
:100920008CE00E940C0481E00E940C048BE39FE1A8
:100930000197F1F782E08093560286E0DF91CF9134
:100940000C940C0480620E940C048BE496E40197E2
:10095000F1F78091540280620E940C0483E592E0DA
:100960000197F1F78091540280620E940C04D0CF6D
:1009700041E00E94B90381E090E00895FB010190FD
:100980000020E9F73197AF01461B570BDC01ED91D1
:10099000FC910280F381E02D09948F929F92AF9297
:1009A000BF92EF92FF920F931F93CF93DF93CDB738
:1009B000DEB7A1970FB6F894DEBF0FBECDBF7C01A6
:1009C000FA01CB0119A2223008F42AE08E010F5D52
:1009D0001F4F822E912CB12CA12CBF01A501940197
:1009E0000E94CB09F901CA016A300CF5605DD8019B
:1009F0006E938D01232B242B252B79F790E080E03B
:100A0000109721F0BD01C7010E94BE04A1960FB648
:100A1000F894DEBF0FBECDBFDF91CF911F910F9134
:100A2000FF90EF90BF90AF909F908F900895695C7A
:100A3000DECFCF92DF92EF92FF92CF93DF936C01E4
:100A4000990FEE08FF08F7FE23C06DE288EA91E0F7
:100A50000E942D01EC0144275527BA014C195D096C
:100A60006E097F092AE088EA91E00E94CD04C80F50
:100A7000D91F6FE171E088EA91E00E94BE048C0FFB
:100A80009D1FDF91CF91FF90EF90DF90CF90089561
:100A90002AE0B701A60188EA91E00E94CD04EC01AA
:100AA000E8CF1F920F920FB60F9211242F933F930E
:100AB0004F935F936F937F938F939F93AF93BF9366
:100AC000EF93FF9380919C0190919D01A0919E01D5
:100AD000B0919F01892B8A2B8B2BD1F1909197019B
:100AE000E0919801F091990180818927808380911C
:100AF0009C0190919D01A0919E01B0919F011816BB
:100B000019061A061B069CF480919C0190919D0188
:100B1000A0919E01B0919F010197A109B109809315
:100B20009C0190939D01A0939E01B0939F01FF9122
:100B3000EF91BF91AF919F918F917F916F915F9155
:100B40004F913F912F910F900FBE0F901F901895CE
:100B500080910001E2ECF0E0E4919FEF90930001BE
:100B6000E13051F030F0E23069F060E00E949A012B
:100B7000DECF10926E00F9CF90916F009D7F909321
:100B80006F00F3CF909170009D7F9093700091E083
:100B90009093B0009091B100987F94609093B100D1
:100BA0001092B300E2CF1F920F920FB60F92112452
:100BB0002F933F934F935F936F937F938F939F9365
:100BC000AF93BF93EF93FF9388EA91E00E940B01EC
:100BD000FF91EF91BF91AF919F918F917F916F9115
:100BE0005F914F913F912F910F900FBE0F901F90EB
:100BF00018951F920F920FB60F9211242F938F9377
:100C00009F93EF93FF93E091B801F091B901808138
:100C1000E091BE01F091BF0182FD1BC090818091E7
:100C2000C1018F5F8F732091C201821741F0E09163
:100C3000C101F0E0E855FE4F958F8093C101FF910F
:100C4000EF919F918F912F910F900FBE0F901F905A
:100C500018958081F4CF1F920F920FB60F92112436
:100C60002F933F938F939F93AF93BF9380918F0167
:100C700090919001A0919101B091920130918E01DB
:100C800023E0230F2D3758F50196A11DB11D2093A8
:100C90008E0180938F0190939001A0939101B09366
:100CA00092018091930190919401A0919501B0914E
:100CB00096010196A11DB11D80939301909394011B
:100CC000A0939501B0939601BF91AF919F918F91A1
:100CD0003F912F910F900FBE0F901F90189526E80F
:100CE000230F0296A11DB11DD2CFCF92DF92EF92BA
:100CF000FF920F931F93E82FF92F05C001501109A0
:100D00002109310961F1908196239417B9F305C047
:100D1000015011092109310911F190819623941391
:100D2000F7CFC12CD12CE12CF12C0AC08FEFC81ABF
:100D3000D80AE80AF80A0C151D052E053F0579F0BA
:100D400080818623841791F36C2D7D2D8E2D9F2D10
:100D50001F910F91FF90EF90DF90CF90089560E08A
:100D600070E080E090E01F910F91FF90EF90DF9096
:100D7000CF900895E8EAF1E01382128288EE93E0C2
:100D8000A0E0B0E084839583A683B78385E091E0FB
:100D90009183808385EC90E09587848784EC90E054
:100DA0009787868780EC90E0918B808B81EC90E038
:100DB000938B828B82EC90E0958B848B86EC90E019
:100DC000978B868B118E128E138E148EE5E4F2E0D3
:100DD0001382128287E191E0918380838CE0848387
:100DE0008FEF85838BE0868385E0878384E080872F
:100DF00083E0818782E082871386148615861686B3
:100E0000178681E00C941204789484B5826084BDC6
:100E100084B5816084BD85B5826085BD85B58160FE
:100E200085BD80916E00816080936E00109281007C
:100E30008091810082608093810080918100816037
:100E400080938100809180008160809380008091F8
:100E5000B10084608093B1008091B0008160809384
:100E6000B00080917A00846080937A0080917A004B
:100E7000826080937A0080917A00816080937A000A
:100E800080917A00806880937A001092C10082E09D
:100E90000E941204E1E0809158028111E0E0E195A6
:100EA000F0E0EB5BFD4F848980680E940C04E091C8
:100EB000B801F091B90182E08083E091B401F09132
:100EC000B5011082E091B601F091B7018FEC8083FB
:100ED0001092C001E091BC01F091BD0186E08083D9
:100EE000E091BA01F091BB01808180618083E09143
:100EF000BA01F091BB01808188608083E091BA01E2
:100F0000F091BB01808180688083E091BA01F0910B
:100F1000BB0180818F7D808361E08DE00E94E601CE
:100F200060E08EE00E94E60161E088E00E94E60158
:100F300060E08FE00E94E60161E08AE00E94E60145
:100F400060E089E00E94E60161E087E00E94E6013E
:100F5000C9E9D0E027EBE22E20E0F22E30E0C32EEC
:100F600030E0D32E8EE00E9409038C01893C91056C
:100F70000CF0C6C061E08DE00E949A0162E271E06F
:100F800088EA91E00E94BE04C8010E94190560ED44
:100F900077E080E090E00E9440038FE00E94090328
:100FA0008C01843691050CF4B2C061E088E00E94A7
:100FB0009A016EE571E088EA91E00E94BE04C801E2
:100FC0000E94190560ED77E080E090E00E94400308
:100FD00061E08AE00E949A0161E070E080E090E0C8
:100FE0000E94400360E08AE00E949A01FE01649141
:100FF000F7018491E82FF0E0EE0FFF1FEA57FF4F53
:101000008591949100E412E42FE030E0462F0E9495
:101010007506611571058105910529F06F5F7F4F98
:101020008F4F9F4F9F709B0177FF02C02F5F3F4FF5
:10103000B90175956795072E000C880B990B0E94D6
:101040003F092DEC3CEC48EE51E40E9495080E94CB
:1010500007094B018B01E0915802E23008F05EC0B5
:10106000E150F0E0EB5BFD4F848980680E940C0446
:10107000092C000CAA08BB082AE0B501A401B7FEA0
:101080000EC041E06DE285E492E00E94B90344277E
:101090005527BA01481959096A097B092AE085E4EC
:1010A00092E00E94CD046BE871E085E492E00E943A
:1010B000BE0403331105A0F560EB74E080E090E01E
:1010C0000E94170268EC70E080E090E00E9440030C
:1010D00060E273E080E090E00E9417026CE370E051
:1010E00080E090E00E944003C114D10409F43ACF9B
:1010F0000E94F700882309F435CF0E94000032CF08
:1011000060E08DE00E949A016FE371E039CF60E00A
:1011100088E00E949A0163E771E04DCFE1E0A1CF42
:1011200060E087E00E949A01D9CF0E94A9080C9440
:1011300091090E948A0958F00E94830940F029F41D
:101140005F3F29F00C947A0951110C94C5090C9455
:1011500080090E94A20968F39923B1F3552391F302
:10116000951B550BBB27AA2762177307840738F016
:101170009F5F5F4F220F331F441FAA1FA9F335D073
:101180000E2E3AF0E0E832D091505040E695001C27
:10119000CAF72BD0FE2F29D0660F771F881FBB1FE1
:1011A000261737074807AB07B0E809F0BB0B802DBF
:1011B000BF01FF2793585F4F3AF09E3F510578F0EB
:1011C0000C947A090C94C5095F3FE4F3983ED4F37C
:1011D000869577956795B795F7959F5FC9F7880FBF
:1011E000911D9695879597F90895E1E0660F771F11
:1011F000881FBB1F621773078407BA0720F0621BA2
:10120000730B840BBA0BEE1F88F7E09508950E94CC
:101210000E096894B1110C94C50908950E94AA0999
:1012200088F09F5798F0B92F9927B751B0F0E1F0A7
:10123000660F771F881F991F1AF0BA95C9F714C057
:10124000B13091F00E94C409B1E008950C94C40932
:10125000672F782F8827B85F39F0B93FCCF3869590
:1012600077956795B395D9F73EF4909580957095ED
:1012700061957F4F8F4F9F4F0895E89409C097FB6A
:101280003EF490958095709561957F4F8F4F9F4F5D
:101290009923A9F0F92F96E9BB279395F6958795A1
:1012A00077956795B795F111F8CFFAF4BB0F11F464
:1012B00060FF1BC06F5F7F4F8F4F9F4F16C088230B
:1012C00011F096E911C0772321F09EE8872F762F41
:1012D00005C0662371F096E8862F70E060E02AF082
:1012E0009A95660F771F881FDAF7880F969587956E
:1012F00097F9089597F99F6780E870E060E0089596
:101300009FEF80EC089500240A941616170618061D
:101310000906089500240A941216130614060506F9
:101320000895092E0394000C11F4882352F0BB0F8A
:1013300040F4BF2B11F460FF04C06F5F7F4F8F4FED
:101340009F4F089557FD9058440F551F59F05F3F28
:1013500071F04795880F97FB991F61F09F3F79F0D7
:1013600087950895121613061406551FF2CF469559
:10137000F1DF08C0161617061806991FF1CF8695DB
:101380007105610508940895E894BB2766277727BF
:10139000CB0197F90895A1E21A2EAA1BBB1BFD01F0
:1013A0000DC0AA1FBB1FEE1FFF1FA217B307E40744
:1013B000F50720F0A21BB30BE40BF50B661F771F9C
:1013C000881F991F1A9469F760957095809590957C
:1013D0009B01AC01BD01CF0108950E94FE09A59FAC
:1013E000900DB49F900DA49F800D911D1124089520
:1013F000EE0FFF1F0590F491E02D0994A29FB0011C
:10140000B39FC001A39F700D811D1124911DB29F38
:0E141000700D811D1124911D0895F894FFCFD9
:10141E00FF000000002D018D00BA007A01EB00C91B
:10142E0000DD0000000000B8048D00730372030D90
:10143E000A00497473204441524B2C205475726E2D
:10144E00206F6E20746865204C4544203A20004978
:10145E007473204252494748542C205475726E20A2
:10146E006F666620746865204C45443A20005669C4
:10147E00627261746520746865206D6F746F72207E
:10148E003A2000444F4E5420766962726174652092
:0E149E00746865206D6F746F722000636D00BE
:00000001FF
